:020000040800F2
:10000000D806002089010008FD170008E91500083E
:10001000F917000891020008C11D00080000000047
:10002000000000000000000000000000AD18000803
:1000300095020008000000006D180008051900086E
:10004000A3010008A3010008A3010008A301000800
:10005000A3010008A3010008A3010008A3010008F0
:10006000A3010008A3010008A3010008A3010008E0
:10007000A3010008A3010008A3010008A3010008D0
:10008000A3010008A3010008A3010008A3010008C0
:10009000A3010008A3010008A3010008A3010008B0
:1000A000A3010008A3010008A3010008A3010008A0
:1000B000A3010008A3010008A3010008A301000890
:1000C000A3010008A3010008A3010008A301000880
:1000D000A3010008A3010008A3010008A301000870
:1000E000A3010008A3010008A301000800F002F822
:1000F00000F03AF80AA090E8000C82448344AAF188
:100100000107DA4501D100F02FF8AFF2090EBAE885
:100110000F0013F0010F18BFFB1A43F0010318473B
:100120008C230000AC230000103A24BF78C878C1AB
:10013000FAD8520724BF30C830C144BF04680C60ED
:10014000704700000023002400250026103A28BF35
:1001500078C1FBD8520728BF30C148BF0B60704739
:100160001FB51FBD10B510BD00F058F81146FFF7C0
:10017000F7FF02F0E7F800F076F803B4FFF7F2FFBC
:1001800003BC00F07DF8000009488047094800479B
:10019000FEE7FEE7FEE7FEE7FEE7FEE7FEE7FEE737
:1001A000FEE7FEE704480549054A064B7047000094
:1001B0007D190008ED000008D8000020D8060020B6
:1001C000D8020020D80200204FF0000200B51346EC
:1001D00094469646203922BFA0E80C50A0E80C5067
:1001E000B1F12001BFF4F7AF090728BFA0E80C5018
:1001F00048BF0CC05DF804EB890028BF40F8042B11
:1002000008BF704748BF20F8022B11F0804F18BF7D
:1002100000F8012B7047704770477047754600F033
:100220002BF8AE4605006946534620F00700854688
:1002300018B020B5FFF7B6FFBDE820404FF000062C
:100240004FF000074FF000084FF0000BAC46ACE851
:10025000C009ACE8C009ACE8C009ACE8C00921F0AD
:1002600007018D46704710B50446AFF30080204665
:10027000BDE81040FFF781BF004870471000002024
:1002800001491820ABBEFEE72600020070470000BF
:10029000FFE7FEE77047000081B0EFF3108072B611
:1002A0000090FFE7FEE7000090B00F900E91002055
:1002B0000D900990FFE70E9800680D99C84000283E
:1002C00000F07F81FFE70D99012088400C900E9887
:1002D00000680C9908400B900B980C99884240F0EC
:1002E0006C81FFE70E9840680590002851D0FFE729
:1002F000059801283AD0FFE7059802283FD0FFE78C
:10030000059803285FD0FFE70598112832D0FFE752
:100310000598122838D0FFE705980021C1F2110195
:10032000884236D0FFE705980021C1F212018842C9
:100330002FD0FFE705980021C1F22101884228D083
:10034000FFE705980021C1F22201884221D0FFE792
:1003500005980021C1F2310188421AD0FFE70598C3
:100360000021C1F23201884213D02FE00E98C068FC
:1003700009902CE00E98C0680430099027E00E9890
:10038000C0680830099022E00E98C0680C300990CF
:100390001DE00E98806818B9FFE70420099011E06D
:1003A0000E988068012806D1FFE7082009900C9874
:1003B0000F99086105E0082009900C980F99486191
:1003C000FFE7FFE703E00020099000E0FFE70B985C
:1003D000FF2803D8FFE70F98049003E00F9804303C
:1003E0000490FFE7049808900B98FF2804D8FFE7D3
:1003F0000D988000039006E00D996FF01F0000EB50
:1004000081000390FFE70398079008980068079A17
:100410000F21914088430999914008430899086049
:100420000E98C079C006002840F1C680FFE7FFE7BC
:1004300041F21800C4F20200016841F001010160BC
:10044000006800F0010006900698FFE70D9820F084
:1004500003000821C4F2010140580A900D9800F0F1
:10046000030081000F2000FA01F10A9888430A90E6
:100470000F9840F60001C4F20101884203D1FFE762
:100480000020029026E00F9840F60041C4F20101DE
:10049000884203D1FFE70120019018E00F9841F254
:1004A0000001C4F20101884203D1FFE7022000905D
:1004B0000AE00F9941F20042C4F201020420914285
:1004C00008BF03200090FFE700980190FFE7019824
:1004D0000290FFE702980D9901F00301890000FAEC
:1004E00001F10A9808430A900A980D9921F0030136
:1004F0000822C4F2010288500E988079C0060028B4
:1005000009D5FFE70B9A40F20841C4F201010868DF
:100510001043086008E00B9A40F20841C4F2010160
:10052000086890430860FFE70E98807980060028ED
:1005300009D5FFE70B9A40F20C41C4F201010868AB
:100540001043086008E00B9A40F20C41C4F201012C
:10055000086890430860FFE70E98807980070028BC
:1005600009D5FFE70B9A40F20441C4F20101086883
:100570001043086008E00B9A40F20441C4F2010104
:10058000086890430860FFE70E988079C00748B17B
:10059000FFE70B9A40F20041C4F2010108681043E2
:1005A000086008E00B9A40F20041C4F201010868BB
:1005B00090430860FFE7FFE7FFE70D9801300D90DB
:1005C00079E610B07047000082B00190ADF80210DB
:1005D00001988068BDF80210084204D0FFE70120AE
:1005E0008DF8010003E000208DF80100FFE79DF881
:1005F000010002B07047000082B00190ADF8021017
:100600008DF801209DF8010028B1FFE7BDF8020038
:100610000199086105E0BDF8020000040199086134
:10062000FFE702B07047000040F2D400C2F20000C1
:100630000068704740F20400C2F20000027840F205
:10064000D401C2F20001086810440860704700003D
:1006500080B542F20001C4F20201086840F01000C7
:100660000860032000F08CF80F2000F005F800F07F
:100670003BF8002080BD000080B582B0009040F2C1
:100680000000C2F20000006840F20401C2F2000162
:100690000A784FF47A71B1FBF2F1B0FBF1F000F09F
:1006A0003FFD20B1FFE701208DF8070018E000981A
:1006B0000F280DD8FFE700994FF0FF30002200F01F
:1006C00045F8009840F20801C2F20001086003E01A
:1006D00001208DF8070003E000208DF80700FFE7F8
:1006E0009DF8070002B080BD83B0FFE741F218001B
:1006F000C4F20200016841F001010160006800F0ED
:10070000010002900298FFE7FFE741F21C00C4F2EB
:100710000200016841F080510160006800F08050E3
:1007200001900198FFE7FFE70421C4F20101086886
:100730000090009820F0E0600090009840F0007079
:10074000009000980860FFE703B0704780B586B05E
:100750008DF81700049103920020029001F032FB03
:1007600002909DF91700019002980499039A01F0F4
:1007700047F80146019801F02DFB06B080BD00004E
:1007800080B582B00190019801F046FB02B080BDB7
:1007900080B584B002900191029820B9FFE7012052
:1007A0008DF80F001BE1019842F20001C4F2020132
:1007B000096801F00701884216D9FFE742F20000FC
:1007C000C4F20200016821F00701019A114301609F
:1007D000006800F007000199884204D0FFE701207B
:1007E0008DF80F00FBE0FFE70298007880070028F3
:1007F0002AD5FFE7029800784007002809D5FFE7CF
:1008000041F20401C4F20201086840F4E0600860AB
:10081000FFE7029800780007002809D5FFE741F2BA
:100820000401C4F20201086840F460500860FFE768
:1008300041F20401C4F20201086820F0F000029ABB
:10084000926810430860FFE702980078C00700280C
:1008500060D0FFE70298406801280ED1FFE741F21F
:100860000000C4F2020000688003002804D4FFE7FF
:1008700001208DF80F00B2E021E0029840680228C4
:100880000ED1FFE741F20000C4F2020000688001CF
:10089000002804D4FFE701208DF80F009FE00DE051
:1008A00041F20000C4F2020000688007002804D46E
:1008B000FFE701208DF80F0091E0FFE7FFE741F22D
:1008C0000401C4F20201086820F00300029A526891
:1008D00010430860FFF7A8FE0090FFE741F2040014
:1008E000C4F20200006800F00C0002994968B0EB05
:1008F000810F0ED0FFE7FFF797FE0099401A41F2F3
:100900008931884204D3FFE703208DF80F0066E0A9
:10091000E4E7FFE7019842F20001C4F2020109682E
:1009200001F00701884216D2FFE742F20000C4F24C
:100930000200016821F00701019A1143016000687B
:1009400000F007000199884204D0FFE701208DF8EC
:100950000F0044E0FFE702980078400700280CD51C
:10096000FFE741F20401C4F20201086820F4E060EC
:10097000029AD26810430860FFE7029800780007E7
:1009800000280DD5FFE741F20401C4F20201086816
:1009900020F46050029A126940EAC2000860FFE742
:1009A00000F022F841F20401C4F202010968C9B260
:1009B0000A0942F28A41C0F60001895CC84040F24F
:1009C0000001C2F20001086040F20800C2F200001B
:1009D0000068FFF751FE00208DF80F00FFE79DF83B
:1009E0000F0004B080BD000086B000200590049088
:1009F00003900290019041F20400C4F202000068EA
:100A00000590059800F00C000146009100283FD0A9
:100A1000FFE70098042804D0FFE70098082806D0D4
:100A200037E041F20020C0F27A00019037E00598EB
:100A3000C0F3834142F29A40C0F60000405C02904D
:100A40009DF81600C007C0B1FFE741F20400C4F2F0
:100A500002000068C0F3404142F2AA40C0F6000024
:100A6000405C0490029841F20021C0F27A014843B0
:100A70000499B0FBF1F0039007E0029840F60011F2
:100A8000C0F23D0148430390FFE70398019006E060
:100A9000FFE741F20020C0F27A000190FFE70198E1
:100AA00006B0704780B586B00490049820B9FFE77F
:100AB00001208DF817002EE304980078C007002865
:100AC00000F0AE80FFE741F20400C4F202000068CB
:100AD00000F00C00042813D0FFE741F20400C4F238
:100AE0000200006800F00C0008281BD1FFE741F26B
:100AF0000400C4F202000068C003002812D5FFE71A
:100B000041F20000C4F2020000688003002808D50A
:100B1000FFE70498406820B9FFE701208DF817002F
:100B2000F9E27CE0FFE704984068B0F5803F09D126
:100B3000FFE741F20001C4F20201086840F480308E
:100B4000086032E00498406868B9FFE741F20001AC
:100B5000C4F20201086820F480300860086820F4BC
:100B60008020086020E004984068B0F5A02F0DD1E7
:100B7000FFE741F20001C4F20201086840F480205E
:100B80000860086840F4803008600CE041F2000121
:100B9000C4F20201086820F480300860086820F47C
:100BA00080200860FFE7FFE7FFE7FFE70498406861
:100BB000D0B1FFE7FFF738FD0390FFE741F20000F7
:100BC000C4F202000068800300280CD4FFE7FFF79E
:100BD0002BFD0399401A652804D3FFE703208DF805
:100BE000170098E2EAE719E0FFF71EFD0390FFE720
:100BF00041F20000C4F202000068800300280CD516
:100C0000FFE7FFF711FD0399401A652804D3FFE7BA
:100C100003208DF817007EE2EAE7FFE7FFE7FFE732
:100C2000049800788007002840F18D80FFE741F2AA
:100C30000400C4F20200006810F00C0F13D0FFE7AC
:100C400041F20400C4F20200006800F00C00082821
:100C500029D1FFE741F20400C4F202000068C0039A
:100C6000002820D4FFE741F20000C4F2020000682F
:100C70008007002809D5FFE704980069012804D0FF
:100C8000FFE701208DF8170045E241F20001C4F2B0
:100C90000201086820F0F800049A526940EAC20094
:100CA0000860FFE74EE00498006958B3FFE70021B1
:100CB000C4F2422101200860FFF7B6FC0390FFE771
:100CC00041F20000C4F202000068800700280CD442
:100CD000FFE7FFF7A9FC0399401A032804D3FFE7B5
:100CE00003208DF8170016E2EAE741F20001C4F292
:100CF0000201086820F0F800049A526940EAC20034
:100D000008601EE00021C4F2422100200860FFF7C5
:100D10008BFC0390FFE741F20000C4F20200006880
:100D2000800700280CD5FFE7FFF77EFC0399401AE7
:100D3000032804D3FFE703208DF81700EBE1EAE76F
:100D4000FFE7FFE7FFE7049800780007002848D591
:100D5000FFE70498806918B3FFE740F28041C4F2CE
:100D6000422101200860FFF75FFC0390FFE741F29A
:100D70002400C4F202000068800700280CD4FFE7BA
:100D8000FFF752FC0399401A032804D3FFE703201E
:100D90008DF81700BFE1EAE7012000F069FD1FE0D0
:100DA00040F28041C4F2422100200860FFF73CFC81
:100DB0000390FFE741F22400C4F2020000688007BC
:100DC00000280CD5FFE7FFF72FFC0399401A0328F2
:100DD00004D3FFE703208DF817009CE1EAE7FFE763
:100DE000FFE7049800784007002840F1D880FFE72B
:100DF00000208DF8070041F21C00C4F202000068D8
:100E0000C000002813D4FFE7FFE741F21C00C4F242
:100E10000200016841F080510160006800F08050DC
:100E200000900098FFE701208DF80700FFE747F2E8
:100E30000000C4F200000068C005002822D4FFE7CB
:100E400047F20001C4F20001086840F480700860B5
:100E5000FFF7EAFB0390FFE747F20000C4F200004F
:100E60000068C00500280CD4FFE7FFF7DDFB0399FD
:100E7000401A652804D3FFE703208DF817004AE1E4
:100E8000EAE7FFE7FFE70498C068012809D1FFE718
:100E900041F22001C4F20201086840F0010008603C
:100EA00031E00498C06868B9FFE741F22001C4F25C
:100EB0000201086820F001000860086820F00400C2
:100EC00008601FE00498C06805280DD1FFE741F2D3
:100ED0002001C4F20201086840F0040008600868BC
:100EE00040F0010008600CE041F22001C4F2020170
:100EF000086820F001000860086820F0040008601D
:100F0000FFE7FFE7FFE7FFE70498C068E0B1FFE70E
:100F1000FFF78AFB0390FFE741F22000C4F20200D2
:100F20000068800700280ED4FFE7FFF77DFB0399D8
:100F3000401A41F28931884204D3FFE703208DF83B
:100F40001700E8E0E8E71BE0FFF76EFB0390FFE720
:100F500041F22000C4F202000068800700280ED58C
:100F6000FFE7FFF761FB0399401A41F2893188429C
:100F700004D3FFE703208DF81700CCE0E8E7FFE794
:100F80009DF80700012809D1FFE741F21C01C4F2D6
:100F90000201086820F080500860FFE7FFE704982E
:100FA000C069002800F0B380FFE741F20400C4F2FA
:100FB0000200006800F00C00082800F08280FFE7C3
:100FC0000498C06902285CD1FFE76021C4F2422185
:100FD00000200860FFF728FB0390FFE741F20000C4
:100FE000C4F202000068800100280CD5FFE7FFF77B
:100FF0001BFB0399401A032804D3FFE703208DF855
:10100000170088E0EAE70498006AB0F5803F0CD149
:10101000FFE741F20401C4F20201086820F4003045
:10102000049A926810430860FFE741F20401C4F299
:101030000201086820F47410049B1A6A5B6A1A4360
:10104000104308606021C4F2422101200860FFF7CC
:10105000EBFA0390FFE741F20000C4F202000068DF
:10106000800100280CD4FFE7FFF7DEFA0399401A4D
:10107000032804D3FFE703208DF817004BE0EAE7CD
:101080001EE06021C4F2422100200860FFF7CCFA84
:101090000390FFE741F20000C4F202000068800103
:1010A00000280CD5FFE7FFF7BFFA0399401A032881
:1010B00004D3FFE703208DF817002CE0EAE7FFE7F1
:1010C00024E00498C069012804D1FFE701208DF8CD
:1010D000170020E041F20400C4F202000068029010
:1010E000029800F480300499096A884208D1FFE729
:1010F000029800F470100499496A884204D0FFE70E
:1011000001208DF8170006E0FFE7FFE7FFE700206A
:101110008DF81700FFE79DF8170006B080BD0000AE
:1011200080B582B00190019800F0C2FB02B080BD92
:1011300085B003900291FFE7039890F83C000128E6
:1011400004D1FFE702208DF813005BE00399012032
:1011500081F83C00FFE7FFE70399022081F83D009A
:1011600003980068406801900398006880680090C8
:10117000019820F0700001900298016801980843DE
:10118000019001980399096848600398006842F645
:101190000041C4F20101884218D0FFE703980068BB
:1011A000B0F1804F12D0FFE70398006840F2004191
:1011B000C4F20001884209D0FFE70398006840F6B6
:1011C0000001C4F2000188420ED1FFE7009820F030
:1011D00080000090029841680098084300900098B1
:1011E000039909688860FFE70399012081F83D00B1
:1011F000FFE70399002081F83C00FFE700208DF80D
:101200001300FFE79DF8130005B0704780B586B066
:1012100005900020049003900290019005980068CA
:1012200040F20041C4F2000188421CD1FFE7FFE711
:1012300041F21800C4F20200016841F004010160AB
:10124000006800F0040000900098FFE7C0200190C3
:1012500002200290049040F60000C4F2010001A9AF
:10126000FFF722F8FFE706B080BD000080B586B02A
:1012700004900391029200208DF80700FFE7049884
:1012800090F83C00012804D1FFE702208DF81700F8
:1012900089E00499012081F83C00FFE7FFE702980C
:1012A00000900C2800F270800099DFE801F0076DD3
:1012B0006D6D206D6D6D3A6D6D6D53000498006815
:1012C000039900F0F1FB04980168886940F0080078
:1012D000886104980168886920F004008861039897
:1012E00002690498016888691043886150E0049895
:1012F0000068039900F040FC04980168886940F494
:101300000060886104980168886920F480608861C1
:101310000398026904980168886940EA022088619C
:1013200036E004980068039900F092FC0498016884
:10133000C86940F00800C86104980168C86920F0D5
:101340000400C8610398026904980168C8691043E1
:10135000C8611DE004980068039900F0E5FC04985A
:101360000168C86940F40060C86104980168C869F0
:1013700020F48060C8610398026904980168C86914
:1013800040EA0220C86103E001208DF80700FFE772
:10139000FFE70499002081F83C00FFE79DF8070073
:1013A0008DF81700FFE79DF8170006B080BD00001C
:1013B00080B582B00090009820B9FFE701208DF839
:1013C00007003FE0009890F83D0040B9FFE7009922
:1013D000002081F83C00009800F038F8FFE7009901
:1013E000022081F83D00009951F8040B00F0C8FA82
:1013F0000099012081F84600FFE70099012081F85B
:101400003E00009981F83F00009981F84000009962
:1014100081F84100FFE7FFE70099012081F84200D1
:10142000009981F84300009981F84400009981F8FF
:101430004500FFE70099012081F83D0000208DF86C
:101440000700FFE79DF8070002B080BD82B0019061
:101450000198006840F20041C4F20001884210D1B6
:10146000FFE7FFE741F21C00C4F20200016841F00F
:1014700002010160006800F0020000900098FFE7A0
:10148000FFE702B07047000080B58AB0089007916E
:10149000079828B9FFE7089890F83E0005901CE0EF
:1014A0000798042805D1FFE7089890F83F000490BA
:1014B00010E00798082805D1FFE7089890F8400049
:1014C000039004E0089890F841000390FFE7039828
:1014D0000490FFE704980590FFE70598012804D0E1
:1014E000FFE701208DF827007AE0079828B9FFE789
:1014F0000899022081F83E001EE00798042806D1D2
:10150000FFE70899022081F83F00029012E0079857
:10151000082806D1FFE70899022081F840000190D1
:1015200005E00899022081F841000190FFE7019849
:101530000290FFE70298FFE70898006807990122E8
:1015400000F096FA0898006842F60041C4F20101E2
:10155000884207D1FFE708980168486C40F40040D2
:101560004864FFE70898006842F60041C4F20101B0
:10157000884218D0FFE708980068B0F1804F12D079
:10158000FFE70898006840F20041C4F20001884279
:1015900009D0FFE70898006840F60001C4F2000196
:1015A000884212D1FFE708980068806800F00700C1
:1015B00006900698062807D0FFE708980168086893
:1015C00040F001000860FFE706E00898016808683D
:1015D00040F001000860FFE700208DF82700FFE7DA
:1015E0009DF827000AB080BDFFE7FEE780B592B006
:1015F0000020119010900F900E90FFE741F218001C
:10160000C4F20200016841F010010160006800F0BE
:1016100010000D900D98FFE7FFE741F21800C4F2AB
:101620000200016841F020010160006800F0200024
:101630000C900C98FFE7FFE741F21800C4F202009B
:10164000016841F004010160006800F004000B90A3
:101650000B98FFE7FFE741F21800C4F202000168AF
:1016600041F008010160006800F008000A900A9843
:10167000FFE741F20000C4F2010001904FF4005175
:10168000009100220792FEF7B7FF079A40F600008C
:10169000C4F2010008901E210391FEF7ADFF079AE6
:1016A00040F60040C4F2010006904FF440610491FE
:1016B000FEF7A2FF009A019807990E92012202926A
:1016C0000F9210910221059111910EA90991FEF737
:1016D000EBFDDDF808C0059A079B08980999DDF82D
:1016E0000CE0CDF838E0CDF83CC010931192FEF735
:1016F000DBFDDDF810C0059A0698079B0999CDF827
:1017000038C04FF0110CCDF83CC010931192FEF789
:10171000CBFD0698079A09994FF440530E930F9208
:101720001092FEF7C1FD079A089809994FF480635B
:101730000E930F921092FEF7B7FD12B080BD00001D
:1017400080B58AB000210091099108910791069116
:101750000591049103910291019140F27C00C2F243
:10176000000040F20042C4F20002026041F61F4253
:1017700042608160C822C260016180218161FFF7FF
:1017800017FE18B1FFE7FEF787FDFFE7002008907E
:10179000099040F27C00C2F2000008A9FFF7C8FCE3
:1017A00018B1FFE7FEF778FDFFE760200190002207
:1017B00002920392059240F27C00C2F2000001A95D
:1017C000FFF754FD18B1FFE7FEF766FDFFE740F2B3
:1017D0007C00C2F2000001A90422FFF747FD18B106
:1017E000FFE7FEF759FDFFE740F27C00C2F2000080
:1017F000FFF70CFD0AB080BDFFE7FEE7FFE7FEE75D
:1018000088B0079006910592079800F007000490B1
:101810000498C0F10700052803D3FFE704200190D6
:1018200004E00498C0F107000190FFE701980390DD
:1018300004980430062803D8FFE70020009003E056
:10184000049803380090FFE70098029006980399E7
:10185000012202FA01F101390840029B98400599E2
:101860009A40013A1140084308B0704770470000A1
:1018700082B00190019840F20001C2F200010968B3
:10188000C90844F6D352C1F26202A1FB02218909C0
:1018900048430090FFE700BFFFE70098411E00911A
:1018A0000028F8D1FFE702B0704700007047000041
:1018B00080B582B0009000980138B0F1807F03D3EA
:1018C000FFE70120019019E0009801384EF2140161
:1018D000CEF2000108604FF0FF300F2100F07AFADD
:1018E0004EF21801CEF20001002008604EF2100204
:1018F000CEF20002072111600190FFE7019802B0CB
:1019000080BD000080B5FEF795FE00F093FB80BD22
:1019100080B590B006A800902821FEF755FC0098ED
:1019200000230593049303930293019301220692EB
:101930004FF48031079108930A9202220D920E9182
:101940004FF4E0110F91FFF7ADF818B1FFE7FEF784
:10195000A3FCFFE70F2001900221029100200390D9
:101960004FF480620492059001A8FEF711FF18B1B0
:10197000FFE7FEF791FCFFE710B080BD7047000065
:1019800083B002900191029800680090029842F69C
:101990000041C4F20101884215D0FFE70298B0F17E
:1019A000804F10D0FFE7029840F20041C4F20001DE
:1019B000884208D0FFE7029840F60001C4F2000117
:1019C00088420AD1FFE7009820F07000009001984B
:1019D0004168009808430090FFE7029842F60041F2
:1019E000C4F20101884215D0FFE70298B0F1804FA0
:1019F00010D0FFE7029840F20041C4F20001884293
:101A000008D0FFE7029840F60001C4F200018842C6
:101A10000AD1FFE7009820F4407000900198C16857
:101A2000009808430090FFE7009820F0800001999B
:101A300049690843009000980299086001988068FD
:101A40000299C8620198006802998862029842F679
:101A50000041C4F20101884205D1FFE70198006905
:101A600002990863FFE702990120486103B07047BB
:101A700084B0039002910192029800F01F010120AE
:101A800088400090009A0399086A90430862019880
:101A9000029901F01F0100FA01F20399086A10434C
:101AA000086204B07047000085B004900391049868
:101AB000006A01900499086A20F001000862049805
:101AC00040680090049880690290029820F07000AD
:101AD0000290029820F00300029003980168029897
:101AE00008430290019820F0020001900398816859
:101AF000019808430190049842F60041C4F20101A4
:101B000088420ED1FFE7019820F008000190039869
:101B1000C168019808430190019820F004000190E9
:101B2000FFE7049842F60041C4F20101884213D154
:101B3000FFE7009820F480700090009820F4007077
:101B400000900398416900980843009003988169C8
:101B5000009808430090FFE70098049948600298B5
:101B6000049988610398406804994863019804992E
:101B7000086205B07047000085B004900391049896
:101B8000006A01900499086A20F010000862049825
:101B900040680090049880690290029820F4E04028
:101BA0000290029820F44070029003980168029815
:101BB00040EA01200290019820F020000190039853
:101BC0008168019840EA01100190049842F60041B2
:101BD000C4F2010188420FD1FFE7019820F0800094
:101BE00001900398C168019840EA011001900198A2
:101BF00020F040000190FFE7049842F60041C4F253
:101C00000101884215D1FFE7009820F48060009020
:101C1000009820F40060009003984169009840EA21
:101C20008100009003988169009840EA810000904B
:101C3000FFE7009804994860029804998861039826
:101C400040680499886301980499086205B0704758
:101C500085B0049003910498006A01900499086A81
:101C600020F4807008620498406800900498C0696D
:101C70000290029820F070000290029820F0030079
:101C8000029003980168029808430290019820F49A
:101C90000070019003988168019840EA012001904A
:101CA000049842F60041C4F2010188420FD1FFE7D7
:101CB000019820F4006001900398C168019840EAFF
:101CC00001200190019820F480600190FFE70498C2
:101CD00042F60041C4F20101884215D1FFE70098A5
:101CE00020F480500090009820F400500090039859
:101CF0004169009840EA01100090039881690098BA
:101D000040EA01100090FFE70098049948600298AB
:101D10000499C861039840680499C86301980499BC
:101D2000086205B07047000085B0049003910498E4
:101D3000006A01900499086A20F4805008620498AF
:101D4000406800900498C0690290029820F4E04036
:101D50000290029820F44070029003980168029863
:101D600040EA01200290019820F40050019003986D
:101D70008168019840EA01300190049842F60041E0
:101D8000C4F2010188420BD1FFE7009820F48040A3
:101D9000009003984169009840EA81100090FFE7A5
:101DA00000980499486002980499C86103984068B3
:101DB0000499086401980499086205B0704700000E
:101DC000FFE7FEE74EF60C50CEF200000068C0F3CD
:101DD0000220704782B08DF8070000919DF907003E
:101DE00000280AD4FFE7009800019DF907104EF281
:101DF0000042CEF2000288540BE0009800019DF8EA
:101E0000071001F00F014EF61452CEF20002885472
:101E1000FFE702B07047000083B00290029800F024
:101E2000070000904EF60C51CEF2000108680190B8
:101E300001984FF6FF02104001900198009A40EA85
:101E400002200022C0F2FA5210430190019808606B
:101E500003B0704780B582B000F03EFA00F0AEFAF1
:101E600040F2CE01C2F2000100200090087040F262
:101E7000CF01C2F20001087040F2D001C2F20001AD
:101E8000087000F0FFF900F045FA009A40F2CA002D
:101E9000C2F20000028040F2CC01C2F200010A80CE
:101EA000028840F27C00C2F20000019003685A638D
:101EB0000988026891630421FFF7E6FA0099019806
:101EC000FFF7E2FA02B080BD80B582B040F2710047
:101ED000C2F200000078A8B3FFE740F27700C2F238
:101EE0000000007870BBFFE740F2CF00C2F20000B4
:101EF000007838BBFFE700F0E5F940F2C800C2F215
:101F00000000007801280BD0FFE700F0A5F900F0F1
:101F100039FA40F2CE01C2F200010020087010E050
:101F200000F04CFA00F0AEF940F2CE01C2F200012E
:101F30000120087040F27101C2F200010020087017
:101F4000FFE70AE040F27100C2F20000007818B921
:101F5000FFE700F0ADF9FFE7FFE740F27700C2F2DC
:101F600000000078B8B3FFE740F27100C2F2000051
:101F7000007880BBFFE740F2CF00C2F2000000789B
:101F800048BBFFE740F2CE00C2F20000007888B103
:101F9000FFE700F0B5F900F05FF940F2CF01C2F2BF
:101FA00000010120087040F2CE01C2F200010020C1
:101FB00008700FE040F27701C2F2000100200190AA
:101FC000087000F093F9019840F2CF01C2F20001CD
:101FD0000870FFE719E040F27700C2F200000078D5
:101FE00090B9FFE740F27100C2F20000007858B9E2
:101FF000FFE700F07BF940F2CF01C2F200010020C0
:10200000087000F03FF9FFE7FFE740F2CA00C2F2B4
:102010000000008840F27C01C2F200010A685063AF
:1020200040F2CC00C2F2000000880968886302B068
:1020300080BD000080B584B040F60040C4F20100CD
:1020400002904FF48051FEF7BFFA0146029840F229
:102050007002C2F20002039211704FF40051FEF7B9
:10206000B3FA0246039840F27601C2F200010A7008
:1020700000788000097800EB410140F27200C2F262
:1020800000000180008806281DD0FFE740F2C40050
:10209000C2F200000188013101800088642811DB50
:1020A000FFE740F2C401C2F200016420088040F260
:1020B0007200C2F20000008840F27401C2F2000116
:1020C0000880FFE7A5E040F2C400C2F200000088EB
:1020D000642840F08A80FFE740F27200C2F20000FC
:1020E0000088062840F08180FFE740F2C600C2F277
:1020F00000000188013101800088642807DBFFE7C8
:1021000040F2C601C2F2000164200880FFE740F2FD
:10211000C400C2F200000088642865D1FFE740F2E5
:10212000C600C2F20000008864285DD1FFE740F2DB
:102130007400C2F20000008801460191022804D018
:10214000FFE70198042817D02AE040F27700C2F296
:102150000000007840B9FFE740F27101C2F20001CF
:102160000878C043087006E040F27101C2F2000135
:1021700000200870FFE725E040F27700C2F200007F
:102180000178C943017040F27102C2F200020021DD
:102190001170007818B9FFE700F010F9FFE711E0BF
:1021A00040F2C401C2F200010020088040F2C601E2
:1021B000C2F20001088040F27401C2F20001062060
:1021C0000880FFE740F2C401C2F20001002008804D
:1021D00040F2C601C2F20001088040F27401C2F26E
:1021E000000106200880FFE712E040F2C401C2F2BD
:1021F00000010020088040F2C601C2F20001088000
:1022000040F27401C2F2000140F2FE700880FFE764
:10221000FFE740F60000C4F201004FF48061FEF7D2
:10222000D3F940F2C801C2F20001087040F2780010
:10223000C2F200000188013101800088142809DB06
:10224000FFE740F27801C2F200010020088000F0B0
:10225000CFF8FFE704B080BD80B582B040F6004003
:10226000C4F2010000904FF4006100220192FEF7D9
:10227000C3F90098019A4FF48061FEF7BDF902B0EE
:1022800080BD000080B582B040F60040C4F201007D
:1022900000904FF4006101220192FEF7ADF9009821
:1022A000019A4FF48061FEF7A7F902B080BD0000EB
:1022B00080B540F60000C4F2010004210022FEF7C0
:1022C0009BF980BD80B540F60000C4F201000421F6
:1022D0000122FEF791F980BD80B540F60000C4F2FE
:1022E000010002210122FEF787F980BD80B540F68A
:1022F0000000C4F2010008210022FEF77DF980BD34
:1023000080B540F60000C4F2010008210122FEF76A
:1023100073F980BD80B541F20000C4F201004FF4B2
:1023200000510122FEF768F980BD000080B541F23E
:102330000000C4F201004FF400510022FEF75CF9E6
:1023400080BD000080B582B000200190FEF780F9CA
:10235000FFF7DEFAFFF74AF9FFF7F2F9FFF77AFD28
:10236000FFE7FFF7B1FD40F2C800C2F200000078BD
:10237000012803D1FFE7FFF7D9FF02E0FFF7CAFF0B
:10238000FFE7EEE740F2CC01C2F200010020088036
:1023900040F2CA01C2F20001C82008807047000064
:1023A00040F2CC01C2F200010020088040F2CA01D4
:1023B000C2F20001322008807047000040F2CC01D8
:1023C000C2F200010020088040F2CA01C2F20001FE
:1023D0000880704740F2CA01C2F200010020088064
:1023E00040F2CC01C2F200013220088070470000A8
:1023F00080B582B040F2CF00C2F200000078D8B3BE
:10240000FFE740F2D000C2F20000007801460191DF
:1024100020B1FFE70198012816D02CE040F2C80057
:10242000C2F20000007818B9FFE7FFF7B9FF0AE031
:10243000FFF7C4FFFFF7CEFF40F2D001C2F2000168
:1024400001200870FFE716E040F2C800C2F2000069
:102450000078012803D1FFE7FFF7BCFF0AE0FFF790
:10246000ADFFFFF79DFF40F2D001C2F20001002056
:102470000870FFE7FFE706E040F2D001C2F200017A
:1024800000200870FFE702B080BD000000000000DF
:1024900000000102030406070809020304050607F9
:1024A00008090A0B0C0D0E0F10100102D0240008B1
:1024B000000000201000000028010008E0240008AF
:1024C00010000020C80600004401000800000000C1
:1024D0000024F400010000001000000000000000D3
:04000005080000ED02
:00000001FF
